:100000000C9486000C9498000C9498000C94980022
:100010000C9498000C9498000C9498000C94980000
:100020000C9498000C9498000C9498000C949800F0
:100030000C9498000C9498000C9498000C949800E0
:100040000C9498000C9498000C9498000C949800D0
:100050000C9498000C9498000C9498000C949800C0
:100060000C9498000C9498000C9498000C949800B0
:100070000C9498000C9498000C9498000C949800A0
:100080000C9498000C9498000C9498000C94980090
:10009000F300CB00CB00CB00D000CB00CB00CB00DB
:1000A000D500CB00CB00CB00CB00CB00CB00CB00EE
:1000B000CB00CB00CB00CB00DA00CB00CB00CB00D9
:1000C000DF00CB00CB00CB00E400CB00CB00CB00AB
:1000D000E900CB00CB00CB00EE0010017D01150143
:1000E0007D0136017D0151017D0163017D017501B5
:1000F0007D017D017D017D017D011E017D013F01AD
:100100007D0148017D015A017D016C0111241FBE52
:10011000CFEFCDBFDFE7DEBF20E6A0E0B0E601C055
:100120001D92AB31B207E1F70E94C7010C949D0606
:100130000C94000064E288E690E00E94970660E07C
:1001400080E690E00E9497068091650080FDFCCFDC
:10015000089561E080E790E00E9497068091650035
:1001600085FDFCCF08958F929F92AF92BF92CF9260
:10017000DF92EF92FF920F931F9380916800E82F18
:10018000EC738E2F90E08532910528F4FC01E85B3A
:10019000FF4F0C94250660E079E08DE390E027C0E6
:1001A00060E874E88EE190E022C060EC76EC8DE2CD
:1001B00090E01DC060E072E18AE790E018C060E066
:1001C0007BE187EB90E013C060E074E284EF90E0A5
:1001D0000EC060E07DE281E391E009C060E076E37B
:1001E0008EE691E004C060E472E48FE090E020913C
:1001F000800B2076203609F080C02091610020FF1E
:100200007CC020916100E22FEE710E2F10E00931C9
:10021000110508F072C0F801E359FF4F0C94250650
:10022000969587957795679568C096958795779504
:10023000679596958795779567955FC02BEA3AEA1B
:100240004AEA5AEA0E94360600E20E946306822EBB
:10025000932EA42EB52EC501B4019695879577955A
:100260006795969587957795679547C0689412F836
:1002700096958795779567951694D1F73EC02AE0B5
:1002800030E040E050E00E940306CA01B90135C0E9
:100290002CE030E040E050E00E940306CA01B901C2
:1002A0002CC0689413F89695879577956795169462
:1002B000D1F723C028E130E040E050E00E9403067F
:1002C000CA01B9011AC0689414F896958795779574
:1002D00067951694D1F711C020E330E040E050E07C
:1002E0000E940306CA01B90108C0689415F89695E2
:1002F0008795779567951694D1F72091800B207696
:10030000203249F530917000209170002323213074
:1003100029F4660F771F881F991F11C03091700054
:10032000209170002323223051F46B017C01CC0C0E
:10033000DD1CEE1CFF1C6C0D7D1D8E1D9F1D613094
:100340002CE672072CED820722E0920720F060E095
:100350007CE68CED92E01F910F91FF90EF90DF9083
:10036000CF90BF90AF909F908F900895E0E0F4E021
:1003700080ED818380E2828380E780936104E0EAFC
:10038000F4E080E6828388E0858B868B08950E9466
:10039000B6010E949A00E0E0F0E680E29EE4818BE4
:1003A000928B80E090E0A0EFB1E4838B948BA58BDF
:1003B000B68B80E00E94E9028091A80485FD0EC002
:1003C0000E94C5038091A80486FD04C081E00E94BC
:1003D000B803F2CF80E00E94B803EECF0E94AB03D7
:1003E000EBCFE0E4F9E081E2808381E0818308954E
:1003F00080E880930604089580E8809305040895BA
:10040000CF93C82F0E94F801C093440980914309FB
:100410008823E4F70E94FC0180914409CF9108955C
:1004200080918E0B80FFFCCFE0E8FBE08081816053
:100430008083089580918E0B80FFFCCFE0E8FBE085
:1004400080818E7F808308954F925F926F927F921A
:100450008F929F92AF92BF92CF92DF92EF92FF92D4
:10046000CF93DF932B013C0169017A018091800BCE
:100470008871883031F0803111F0C1E003C0C0E2F2
:1004800001C0C4E00E94B3004B015C01AC2FB0E09E
:10049000A30192010E942B069B01AC01220F331F86
:1004A000441F551FC501B4010E940306E9012197AD
:1004B00020E030E048EC52E4C701B6010E94670436
:1004C0006B017C01BE0180E090E00E940805A7015D
:1004D00096010E9496050E94D9046F5F7F4FCE015E
:1004E000861B970B0197E0E8FBE0C6A7D7A784A778
:1004F00095A760A771A7DF91CF91FF90EF90DF9054
:10050000CF90BF90AF909F908F907F906F905F90B3
:100510004F90089584E08093E90560E482E99BE0D0
:100520000E94970683E08093810B80918E0B80FF61
:10053000FCCF1092800B0895E0E0F0E68181982FC7
:10054000991F9927991F938386FB992790F9948384
:1005500085FB992790F9958384FB992790F99683D9
:100560008F7087838F3009F480E08093086008954E
:10057000E0E0F0E68281982F9295969597709187AA
:1005800084FB992790F9928783FB992790F99387A9
:1005900082FB992790F9948781FB992790F9958799
:1005A000817086870895E0E0F0E6528533852485E2
:1005B0009585468560E1569F800D1124330F330FDA
:1005C000330F830F220F220F820F990F890F840F91
:1005D00008954F925F926F927F928F929F92AF9207
:1005E000BF92CF92DF92EF92FF920F931F93CF9320
:1005F000DF9300D01F92CDB7DEB7809310608823C1
:1006000009F485C00E94FC010E94F101E0E0F0E6DF
:1006100081E083871286148680EE0E94D30289834C
:1006200080E28A831B82F12C0DC001E010E00C0FE8
:100630001D1F0F0D111DF80180810E940002F8019D
:100640008083F394F2E0FF1580F78A8100E010E6E2
:10065000F80182838B8180830E94B8020E94B300DC
:100660000E9408059B01AC0160E070E080E89FE318
:100670000E94670420E030E040E850E40E949605C4
:100680006B017C01F8016189728980E090E00E9431
:1006900008059B01AC0160E070E080E89FE30E94E8
:1006A00067042BE831EE4AE657E30E94FA032B0178
:1006B0003C01F801638974898589968920E030E0DE
:1006C00048EC52E40E9467049B01AC01C301B201F3
:1006D0000E9496054B015C019B01AC01C301B20174
:1006E0000E94FA03A70196010E9467040E94D904A0
:1006F000F801618F728FA7019601C501B4010E94B4
:1007000067040E94D904F801678B708F10C00E94A3
:10071000A9000E948A02E0E0F0E6618972892389DB
:1007200034894589568980E090E00E94240223960E
:10073000CDBFDEBFDF91CF911F910F91FF90EF9062
:10074000DF90CF90BF90AF909F908F907F906F90F1
:100750005F904F90089580911060882319F0109257
:100760000C6008950E941A0280E480936504089545
:1007700090911060992319F080930D6008958295EF
:10078000880F807E809364040895CF93DF938091D7
:1007900010608823E1F0C0E0D0E681E08C878E878E
:1007A00080EC0E94D3020E94000289838F89988D79
:1007B0000197F1F70E949C021E8680EC0E94D302F2
:1007C0000E940002898D9A8D0197F1F710C00E9456
:1007D000100280E4809366048091080485FF07C0BE
:1007E0008091080485FB882780F980930860DF9159
:1007F000CF9108955058BB27AA270E9412040C9449
:100800005C050E944E0538F00E94550520F039F431
:100810009F3F19F426F40C944B050EF4E095E7FB8A
:100820000C944505E92F0E946D0558F3BA1762072D
:1008300073078407950720F079F4A6F50C948F05CB
:100840000EF4E0950B2EBA2FA02D0B01B9019001EB
:100850000C01CA01A0011124FF27591B99F0593F2F
:1008600050F4503E68F11A16F040A22F232F342F77
:100870004427585FF3CF469537952795A795F040C5
:100880005395C9F77EF41F16BA0B620B730B840BDA
:10089000BAF09150A1F0FF0FBB1F661F771F881F92
:1008A000C2F70EC0BA0F621F731F841F48F48795EA
:1008B00077956795B795F7959E3F08F0B0CF9395DC
:1008C000880F08F09927EE0F9795879508950E9455
:1008D0007B040C945C050E94550558F00E944E055F
:1008E00040F029F45F3F29F00C94450551110C9418
:1008F00090050C944B050E946D0568F39923B1F3A4
:10090000552391F3951B550BBB27AA276217730735
:10091000840738F09F5F5F4F220F331F441FAA1FC9
:10092000A9F335D00E2E3AF0E0E832D09150504085
:10093000E695001CCAF72BD0FE2F29D0660F771F33
:10094000881FBB1F261737074807AB07B0E809F019
:10095000BB0B802DBF01FF2793585F4F3AF09E3F9E
:10096000510578F00C9445050C9490055F3FE4F335
:10097000983ED4F3869577956795B795F7959F5FE1
:10098000C9F7880F911D9695879597F90895E1E02D
:10099000660F771F881FBB1F621773078407BA078C
:1009A00020F0621B730B840BBA0BEE1F88F7E095E7
:1009B00008950E94750588F09F5798F0B92F9927E0
:1009C000B751B0F0E1F0660F771F881F991F1AF03A
:1009D000BA95C9F714C0B13091F00E948F05B1E00B
:1009E00008950C948F05672F782F8827B85F39F00A
:1009F000B93FCCF3869577956795B395D9F73EF4D3
:100A000090958095709561957F4F8F4F9F4F08957A
:100A1000E89409C097FB3EF4909580957095619598
:100A20007F4F8F4F9F4F9923A9F0F92F96E9BB274E
:100A30009395F695879577956795B795F111F8CFCA
:100A4000FAF4BB0F11F460FF1BC06F5F7F4F8F4F35
:100A50009F4F16C0882311F096E911C0772321F02B
:100A60009EE8872F762F05C0662371F096E8862FC3
:100A700070E060E02AF09A95660F771F881FDAF71A
:100A8000880F9695879597F9089597F99F6780E85D
:100A900070E060E008959FEF80EC089500240A94D0
:100AA0001616170618060906089500240A94121649
:100AB0001306140605060895092E0394000C11F47C
:100AC000882352F0BB0F40F4BF2B11F460FF04C029
:100AD0006F5F7F4F8F4F9F4F089557FD9058440F82
:100AE000551F59F05F3F71F04795880F97FB991F8D
:100AF00061F09F3F79F0879508951216130614064A
:100B0000551FF2CF4695F1DF08C0161617061806D6
:100B1000991FF1CF86957105610508940895E894B1
:100B2000BB2766277727CB0197F908950E94A9056F
:100B30000C945C050E944E0538F00E94550520F08B
:100B4000952311F00C9445050C944B0511240C943D
:100B500090050E946D0570F3959FC1F3950F50E0CD
:100B6000551F629FF001729FBB27F00DB11D639F5F
:100B7000AA27F00DB11DAA1F649F6627B00DA11D05
:100B8000661F829F2227B00DA11D621F739FB00DAB
:100B9000A11D621F839FA00D611D221F749F33271B
:100BA000A00D611D231F849F600D211D822F762FB4
:100BB0006A2F11249F5750409AF0F1F088234AF091
:100BC000EE0FFF1FBB1F661F771F881F91505040FD
:100BD000A9F79E3F510580F00C9445050C949005B3
:100BE0005F3FE4F3983ED4F3869577956795B79584
:100BF000F795E7959F5FC1F7FE2B880F911D96959E
:100C0000879597F90895A1E21A2EAA1BBB1BFD0137
:100C10000DC0AA1FBB1FEE1FFF1FA217B307E407DB
:100C2000F50720F0A21BB30BE40BF50B661F771F33
:100C3000881F991F1A9469F7609570958095909513
:100C40009B01AC01BD01CF010895EE0FFF1F059080
:100C5000F491E02D09940E947F06A59F900DB49F0A
:100C6000900DA49F800D911D11240895E894DF93A9
:100C7000CF93FC01DB010E947F067F936F93E90114
:100C80009A01AC01BF93AF933F932F93DF010E9472
:100C90007F0626F46C1B7D0B820B930B9E01EB01F0
:100CA000FC010E948E06AF91BF912F913F910E944F
:100CB0008E06BE01CF01F9012F913F91CF91DF91B7
:100CC000089597FB10F8169400080F93083098F0D9
:100CD0000850232F342F452F562F672F782F892F19
:100CE000902DF4CF059497958795779567955795AF
:100CF0004795379527950A95AAF70F910895A29FD2
:100D0000B001B39FC001A39F700D811D1124911DDF
:100D1000B29F700D811D1124911D08950E947F06C0
:100D2000460F571FC81FD91F08F431960895DC01DC
:0E0D300028ED209334006C930895F894FFCFC3
:00000001FF
