:100000000C9486000C9498000C9498000C94980022
:100010000C9498000C9498000C9498000C94980000
:100020000C9498000C9498000C9498000C949800F0
:100030000C9498000C9498000C9498000C949800E0
:100040000C9498000C9498000C9498000C949800D0
:100050000C9498000C9498000C9498000C949800C0
:100060000C9498000C9498000C9498000C949800B0
:100070000C9498000C9498000C9498000C949800A0
:100080000C9498000C9498000C9498000C94980090
:1000900089013D013D013D0146013D013D013D011B
:1000A00050013D013D013D013D013D013D013D014D
:1000B0003D013D013D013D015A013D013D013D0133
:1000C00063013D013D013D016C013D013D013D01EB
:1000D00075013D013D013D017F01AB012802B001E9
:1000E0002802D9012802F80128020C022802200265
:1000F00028022802280228022802B9012802E20167
:100100002802ED01280201022802150211241FBE57
:10011000CFEFCDBFDFE7DEBF20E6A0E0B0E601C055
:100120001D92A831B207E1F70E94C4000C94F405B7
:100130000C94000064E288E690E00E94EE0560E026
:1001400080E690E00E94EE058091650080FDFCCF86
:10015000089561E080E790E00E94EE0580916500DF
:1001600085FDFCCF0895E0E0F4E080ED818380E23E
:10017000828380E780936104E0EAF4E080E6828392
:1001800088E0858B868B08950E94B3000E949A00B8
:10019000E1E0F0E680E29EE4818B928B80E090E0EB
:1001A000A0E2B1E4838B948BA58BB68B81E00E9497
:1001B00048030E9475038091A80485FD10C00E9429
:1001C00069030E9495038091A80486FD04C081E024
:1001D0000E948403F0CF80E00E948403ECCF0E9451
:1001E000B4030E947503E7CFE0E4F9E081E2808385
:1001F00081E08183089580E880930604089580E873
:1002000080930504089580918E0B80FFFCCFE0E879
:10021000FBE0808181608083089580918E0B80FF58
:10022000FCCFE0E8FBE080818E7F808308954F92D1
:100230005F926F927F928F929F92AF92BF92CF9276
:10024000DF92EF92FF920F93CF93DF93CDB7DEB79C
:100250002897CDBFDEBF4B015C0169017A01809117
:100260006800E82FEC738E2F90E08532910528F41A
:10027000FC01E85BFF4F0C947C050F2E412CF9E04C
:100280005F2EFDE36F2E712CF02D4CC00F2EF0E889
:100290004F2EF4E85F2EFEE16F2E712CF02D42C040
:1002A0000F2EF0EC4F2EF6EC5F2EFDE26F2E712C30
:1002B000F02D38C00F2E412CF2E15F2EFAE76F2EA1
:1002C000712CF02D2FC00F2E412CFBE15F2EF7EB90
:1002D0006F2E712CF02D26C00F2E412CF4E25F2ED4
:1002E000F4EF6F2E712CF02D1DC00F2E412CFDE26E
:1002F0005F2EF1E36F2E77247394F02D13C00F2E31
:10030000412CF6E35F2EFEE66F2E77247394F02DDA
:1003100009C00F2EF0E44F2EF2E45F2EFFE06F2EA7
:10032000712CF02D8091800B8076803609F090C082
:100330008091610080FF8CC080916100E82FEE7198
:100340008E2F90E08931910508F082C0FC01E359BD
:10035000FF4F0C947C05769467945794479478C02B
:1003600076946794579447947694679457944794F7
:100370006FC0C301B2012BEA3AEA4AEA5AEA0E9484
:100380008D0500E20E94BA0529833A834B835C8382
:100390006D837E838F83988749805A806B807C80B1
:1003A00076946794579447947694679457944794B7
:1003B0004FC0689412F876946794579447941694B3
:1003C000D1F746C0C301B2012AE030E040E050E07E
:1003D0000E945A0529013A013BC0C301B2012CE039
:1003E00030E040E050E00E945A0529013A0130C057
:1003F000689413F876946794579447941694D1F7B9
:1004000027C0C301B20128E130E040E050E00E9483
:100410005A0529013A011CC0689414F8769467942F
:10042000579447941694D1F713C0C301B20120E347
:1004300030E040E050E00E945A0529013A0108C02E
:10044000689415F876946794579447941694D1F766
:100450008091800B8076803279F590917000809148
:1004600070008923813029F4440C551C661C771CCC
:1004700011C090917000809170008923823051F4F6
:10048000D301C201880F991FAA1FBB1F480E591E16
:100490006A1E7B1E81E048168CE658068CED6806C5
:1004A00082E0780648F00F2E412CFCE65F2EFCED32
:1004B0006F2EF2E07F2EF02D8091800B88718830B6
:1004C00031F0803111F0A1E003C0A0E201C0A4E04E
:1004D000B0E0A50194010E9482059B01AC01220FAE
:1004E000331F441F551FC301B2010E945A05590111
:1004F00081E0A81AB10820E030E048EC52E4C701DE
:10050000B6010E94BE036B017C01B50180E090E062
:100510000E945F04A70196010E94ED040E9430042E
:100520006F5F7F4FC501861B970B0197E0E8FBE0EB
:10053000A6A6B7A684A795A760A771A72896CDBF42
:10054000DEBFDF91CF910F91FF90EF90DF90CF90C2
:10055000BF90AF909F908F907F906F905F904F90E3
:10056000089584E08093E90560E482E99BE00E94BD
:10057000EE0583E08093810B80918E0B80FFFCCF92
:1005800080E28093800B0895E1E0F0E68181982F6E
:10059000991F9927991F938386FB992790F9948334
:1005A00085FB992790F9958384FB992790F9968389
:1005B0008F7087838F3011F0809309600895E1E098
:1005C000F0E68281982F929596959770918784FB9B
:1005D000992790F9928783FB992790F9938782FB5B
:1005E000992790F9948781FB992790F995878170D5
:1005F00086870895CF93C82F0E94FB00E1E0F0E6C4
:10060000828533852485958546856C2F50E1859FAD
:10061000600D1124862F330F330F330F830F220FFA
:10062000220F820F990F890F840F809344098091C4
:1006300043098823E4F70E94FF0080910060833023
:1006400081F0C03E39F480914409809303600E9498
:10065000DF021CC080914409809302600E94C402A2
:1006600015C0C03E39F480914409109203600E9485
:10067000DF0207C0809144098FED809302600E94E1
:10068000C402809100608F5F80930060CF910895D5
:1006900080931160882361F00E94F400E1E0F0E6AD
:1006A00081E083871286148680EE0E94FA02089504
:1006B0000E94A9000E94B102E1E0F0E6618972891E
:1006C000238934894589568980E090E00E9417018A
:1006D000089580911160882321F081E080930D605E
:1006E000089580E4809366040895809111608823C2
:1006F00029F010920D600E94FF0008950E940D01E4
:1007000080E480936504089590911160992319F015
:1007100080930E600895E0E6F4E0248130E2839F48
:10072000C0011124822B84830895CF93DF9380919D
:1007300011608823A1F0C1E0D0E681E08E8780ECD3
:100740000E94FA028EE190E00197F1F71E8680EC9C
:100750000E94FA028EE091E00197F1F702C00E9438
:100760000301DF91CF91089580911160882319F0E2
:100770000E94FF0008950E940D0108950E94D20377
:100780000C94B3040E94AC0458F00E94A50440F0FD
:1007900029F45F3F29F00C949C0451110C94E70458
:1007A0000C94A2040E94C40468F39923B1F3552366
:1007B00091F3951B550BBB27AA2762177307840774
:1007C00038F09F5F5F4F220F331F441FAA1FA9F30A
:1007D00035D00E2E3AF0E0E832D091505040E695F8
:1007E000001CCAF72BD0FE2F29D0660F771F881F59
:1007F000BB1F261737074807AB07B0E809F0BB0B4C
:10080000802DBF01FF2793585F4F3AF09E3F51055F
:1008100078F00C949C040C94E7045F3FE4F3983E5A
:10082000D4F3869577956795B795F7959F5FC9F748
:10083000880F911D9695879597F90895E1E0660FC9
:10084000771F881FBB1F621773078407BA0720F042
:10085000621B730B840BBA0BEE1F88F7E0950895AB
:100860000E94CC0488F09F5798F0B92F9927B75170
:10087000B0F0E1F0660F771F881F991F1AF0BA9544
:10088000C9F714C0B13091F00E94E604B1E00895B8
:100890000C94E604672F782F8827B85F39F0B93FAA
:1008A000CCF3869577956795B395D9F73EF49095F7
:1008B0008095709561957F4F8F4F9F4F0895E89475
:1008C00009C097FB3EF490958095709561957F4F98
:1008D0008F4F9F4F9923A9F0F92F96E9BB27939546
:1008E000F695879577956795B795F111F8CFFAF456
:1008F000BB0F11F460FF1BC06F5F7F4F8F4F9F4F87
:1009000016C0882311F096E911C0772321F09EE8E4
:10091000872F762F05C0662371F096E8862F70E04A
:1009200060E02AF09A95660F771F881FDAF7880F24
:100930009695879597F9089597F99F6780E870E0F5
:1009400060E008959FEF80EC089500240A94161645
:10095000170618060906089500240A9412161306AD
:10096000140605060895092E0394000C11F488233B
:1009700052F0BB0F40F4BF2B11F460FF04C06F5F57
:100980007F4F8F4F9F4F089557FD9058440F551F2D
:1009900059F05F3F71F04795880F97FB991F61F001
:1009A0009F3F79F087950895121613061406551F78
:1009B000F2CF4695F1DF08C0161617061806991FE4
:1009C000F1CF86957105610508940895E894BB27D9
:1009D00066277727CB0197F908950E9400050C94AC
:1009E000B3040E94A50438F00E94AC0420F09523C3
:1009F00011F00C949C040C94A20411240C94E704B0
:100A00000E94C40470F3959FC1F3950F50E0551FE9
:100A1000629FF001729FBB27F00DB11D639FAA2753
:100A2000F00DB11DAA1F649F6627B00DA11D661FA2
:100A3000829F2227B00DA11D621F739FB00DA11DC3
:100A4000621F839FA00D611D221F749F3327A00D7D
:100A5000611D231F849F600D211D822F762F6A2F19
:100A600011249F5750409AF0F1F088234AF0EE0F7E
:100A7000FF1FBB1F661F771F881F91505040A9F7AB
:100A80009E3F510580F00C949C040C94E7045F3F5A
:100A9000E4F3983ED4F3869577956795B795F795E7
:100AA000E7959F5FC1F7FE2B880F911D969587955F
:100AB00097F90895A1E21A2EAA1BBB1BFD010DC0D8
:100AC000AA1FBB1FEE1FFF1FA217B307E407F507FE
:100AD00020F0A21BB30BE40BF50B661F771F881FDA
:100AE000991F1A9469F760957095809590959B0170
:100AF000AC01BD01CF010895EE0FFF1F0590F491E9
:100B0000E02D09940E94D605A59F900DB49F900DED
:100B1000A49F800D911D11240895E894DF93CF9335
:100B2000FC01DB010E94D6057F936F93E9019A01D6
:100B3000AC01BF93AF933F932F93DF010E94D60583
:100B400026F46C1B7D0B820B930B9E01EB01FC01C9
:100B50000E94E505AF91BF912F913F910E94E5055D
:100B6000BE01CF01F9012F913F91CF91DF910895FF
:100B700097FB10F8169400080F93083098F008506F
:100B8000232F342F452F562F672F782F892F902D05
:100B9000F4CF0594979587957795679557954795E1
:100BA000379527950A95AAF70F910895A29FB0014E
:100BB000B39FC001A39F700D811D1124911DB29F91
:100BC000700D811D1124911D08950E94D605460FB8
:100BD000571FC81FD91F08F431960895DC0128ED6E
:0C0BE000209334006C930895F894FFCF2C
:00000001FF
