S01B00004156523634444433322D544C453932303153472E7372656351
S11300000C9486000C9498000C9498000C9498001E
S11300100C9498000C9498000C9498000C949800FC
S11300200C9498000C9498000C9498000C949800EC
S11300300C9498000C9498000C9498000C949800DC
S11300400C9498000C9498000C9498000C949800CC
S11300500C9498000C9498000C9498000C949800BC
S11300600C9498000C9498000C9498000C949800AC
S11300700C9498000C9498000C9498000C9498009C
S11300800C9498000C9498000C9498000C9498008C
S1130090F300CB00CB00CB00D000CB00CB00CB00D7
S11300A0D500CB00CB00CB00CB00CB00CB00CB00EA
S11300B0CB00CB00CB00CB00DA00CB00CB00CB00D5
S11300C0DF00CB00CB00CB00E400CB00CB00CB00A7
S11300D0E900CB00CB00CB00EE0010017D0115013F
S11300E07D0136017D0151017D0163017D017501B1
S11300F07D017D017D017D017D011E017D013F01A9
S11301007D0148017D015A017D016C0111241FBE4E
S1130110CFEFCDBFDFE7DEBF20E6A0E0B0E601C051
S11301201D92AC31B207E1F70E94C9010C94FD05A0
S11301300C94000064E288E690E00E94F70560E019
S113014080E690E00E94F7058091650080FDFCCF79
S1130150089561E080E790E00E94F70580916500D2
S113016085FDFCCF08958F929F92AF92BF92CF925C
S1130170DF92EF92FF920F931F9380916800E82F14
S1130180EC738E2F90E08532910528F4FC01E85B36
S1130190FF4F0C94850560E079E08DE390E027C083
S11301A060E874E88EE190E022C060EC76EC8DE2C9
S11301B090E01DC060E072E18AE790E018C060E062
S11301C07BE187EB90E013C060E074E284EF90E0A1
S11301D00EC060E07DE281E391E009C060E076E377
S11301E08EE691E004C060E472E48FE090E0209138
S11301F0800B2076203609F080C02091610020FF1A
S11302007CC020916100E22FEE710E2F10E00931C5
S1130210110508F072C0F801E359FF4F0C948505ED
S1130220969587957795679568C096958795779500
S1130230679596958795779567955FC02BEA3AEA17
S11302404AEA5AEA0E94960500E20E94C305822EF9
S1130250932EA42EB52EC501B40196958795779556
S11302606795969587957795679547C0689412F832
S113027096958795779567951694D1F73EC02AE0B1
S113028030E040E050E00E946305CA01B90135C086
S11302902CE030E040E050E00E946305CA01B9015F
S11302A02CC0689413F8969587957795679516945E
S11302B0D1F723C028E130E040E050E00E9463051C
S11302C0CA01B9011AC0689414F896958795779570
S11302D067951694D1F711C020E330E040E050E078
S11302E00E946305CA01B90108C0689415F896957F
S11302F08795779567951694D1F72091800B207692
S1130300203249F530917000209170002323213070
S113031029F4660F771F881F991F11C03091700050
S1130320209170002323223051F46B017C01CC0C0A
S1130330DD1CEE1CFF1C6C0D7D1D8E1D9F1D613090
S11303402CE672072CED820722E0920720F060E091
S11303507CE68CED92E01F910F91FF90EF90DF907F
S1130360CF90BF90AF909F908F900895E0E0F4E01D
S113037080ED818380E282830E94020280E7809381
S11303806104E0EAF4E080E6828388E0858B868B72
S113039008950E94B6010E949A00E1E0F0E680E22E
S11303A09EE4818B928B80E090E0A8E4B2E4838B9E
S11303B0948BA58BB68B81E00E9446038091A804A0
S11303C085FD10C00E9476030E949E038091A804BC
S11303D086FD04C081E00E949103F0CF80E00E947A
S11303E09103ECCF0E94BD030E948203E7CFE0E4B7
S11303F0F9E081E2808381E08183089580E880933D
S11304000604089580E880930504089580918E0B76
S113041080FFFCCFE0E8FBE0808181608083089569
S113042080918E0B80FFFCCFE0E8FBE080818E7F23
S1130430808308954F925F926F927F928F929F92E2
S1130440AF92BF92CF92DF92EF92FF92CF93DF935E
S11304502B013C0169017A018091800B88718830FD
S113046031F0803111F0C1E003C0C0E201C0C4E04A
S11304700E94B3004B015C01AC2FB0E0A3019201D8
S11304800E948B059B01AC01220F331F441F551F93
S1130490C501B4010E946305E901219720E030E021
S11304A048EC52E4C701B6010E94C7036B017C010A
S11304B0BE0180E090E00E946804A70196010E94BA
S11304C0F6040E9439046F5F7F4FCE01861B970BA1
S11304D00197E0E8FBE0C6A7D7A784A795A760A784
S11304E071A7DF91CF91FF90EF90DF90CF90BF90F5
S11304F0AF909F908F907F906F905F904F900895F2
S113050084E08093E90560E482E99BE00E94F705BA
S113051083E08093810B80918E0B80FFFCCF10923F
S1130520800B08951F93CF93DF93182FD62FC0E02D
S113053027C00E94FE01DD23D1F0E1E0F0E68285D0
S11305403385248595854685612F50E1859F600D0F
S11305501124862F330F330F330F830F220F220FF3
S1130560820F990F890F840F8093440902C010935E
S11305704409809143098823E4F70E940202CF5F73
S11305802C2F30E04091006083E090E0841B9109BF
S11305902817390774F281E0809300608091440940
S11305A0DF91CF911F91089560E080E20E94920252
S11305B0809301600895E1E0F0E68181982F991F0E
S11305C09927991F938386FB992790F9948385FB38
S11305D0992790F9958384FB992790F996838F70D6
S11305E087838F3009F480E0809309600895E1E007
S11305F0F0E68281982F929596959770918784FB67
S1130600992790F9928783FB992790F9938782FB26
S1130610992790F9948781FB992790F995878170A0
S113062086870895CF93C82F0E94FE01E1E0F0E68B
S1130630828533852485958546856C2F50E1859F79
S1130640600D1124862F330F330F330F830F220FC6
S1130650220F820F990F890F840F80934409809190
S113066043098823E4F7C03E39F480914409809318
S113067003600E94F70206C08091440980930260DF
S11306800E94DB020E940202CF910895CF93DF9370
S1130690809311608823B9F00E94F701C1E0D0E68D
S11306A081E08B871A861C8680EE0E9412030E94CA
S11306B0D40260E080E60E9492028A830E94F702DC
S11306C00E94020210C00E94A9000E948002E1E080
S11306D0F0E661897289238934894589568980E0E5
S11306E090E00E941A02DF91CF91089580911160E9
S11306F0882321F081E080930D60089580E4809345
S11307006604089580911160882329F010920D6089
S11307100E94020208950E94100280E480936504FE
S1130720089590911160992319F080930E600895B3
S11307308295880F807E809364040895CF93DF931D
S1130740809111608823A1F0C1E0D0E681E08E871A
S113075080EC0E9412038F89988D0197F1F71E8611
S113076080EC0E941203898D9A8D0197F1F702C0E3
S11307700E940602DF91CF91089580911160882331
S113078019F00E94020208950E94100208950E9426
S1130790DB030C94BC040E94B50458F00E94AE0420
S11307A040F029F45F3F29F00C94A50451110C94F6
S11307B0F0040C94AB040E94CD0468F39923B1F3C4
S11307C0552391F3951B550BBB27AA276217730773
S11307D0840738F09F5F5F4F220F331F441FAA1F07
S11307E0A9F335D00E2E3AF0E0E832D091505040C3
S11307F0E695001CCAF72BD0FE2F29D0660F771F71
S1130800881FBB1F261737074807AB07B0E809F056
S1130810BB0B802DBF01FF2793585F4F3AF09E3FDB
S1130820510578F00C94A5040C94F0045F3FE4F3B4
S1130830983ED4F3869577956795B795F7959F5F1E
S1130840C9F7880F911D9695879597F90895E1E06A
S1130850660F771F881FBB1F621773078407BA07C9
S113086020F0621B730B840BBA0BEE1F88F7E09524
S113087008950E94D50488F09F5798F0B92F9927BE
S1130880B751B0F0E1F0660F771F881F991F1AF077
S1130890BA95C9F714C0B13091F00E94EF04B1E0E9
S11308A008950C94EF04672F782F8827B85F39F0E8
S11308B0B93FCCF3869577956795B395D9F73EF410
S11308C090958095709561957F4F8F4F9F4F0895B8
S11308D0E89409C097FB3EF49095809570956195D6
S11308E07F4F8F4F9F4F9923A9F0F92F96E9BB278C
S11308F09395F695879577956795B795F111F8CF08
S1130900FAF4BB0F11F460FF1BC06F5F7F4F8F4F72
S11309109F4F16C0882311F096E911C0772321F068
S11309209EE8872F762F05C0662371F096E8862F00
S113093070E060E02AF09A95660F771F881FDAF757
S1130940880F9695879597F9089597F99F6780E89A
S113095070E060E008959FEF80EC089500240A940D
S11309601616170618060906089500240A94121686
S11309701306140605060895092E0394000C11F4B9
S1130980882352F0BB0F40F4BF2B11F460FF04C066
S11309906F5F7F4F8F4F9F4F089557FD9058440FBF
S11309A0551F59F05F3F71F04795880F97FB991FCA
S11309B061F09F3F79F08795089512161306140687
S11309C0551FF2CF4695F1DF08C016161706180614
S11309D0991FF1CF86957105610508940895E894EF
S11309E0BB2766277727CB0197F908950E9409054D
S11309F00C94BC040E94AE0438F00E94B50420F0AC
S1130A00952311F00C94A5040C94AB0411240C94BC
S1130A10F0040E94CD0470F3959FC1F3950F50E04C
S1130A20551F629FF001729FBB27F00DB11D639F9C
S1130A30AA27F00DB11DAA1F649F6627B00DA11D42
S1130A40661F829F2227B00DA11D621F739FB00DE8
S1130A50A11D621F839FA00D611D221F749F332758
S1130A60A00D611D231F849F600D211D822F762FF1
S1130A706A2F11249F5750409AF0F1F088234AF0CE
S1130A80EE0FFF1FBB1F661F771F881F915050403A
S1130A90A9F79E3F510580F00C94A5040C94F00432
S1130AA05F3FE4F3983ED4F3869577956795B795C1
S1130AB0F795E7959F5FC1F7FE2B880F911D9695DB
S1130AC0879597F90895A1E21A2EAA1BBB1BFD0175
S1130AD00DC0AA1FBB1FEE1FFF1FA217B307E40719
S1130AE0F50720F0A21BB30BE40BF50B661F771F71
S1130AF0881F991F1A9469F7609570958095909551
S1130B009B01AC01BD01CF010895EE0FFF1F0590BD
S1130B10F491E02D09940E94DF05A59F900DB49FE8
S1130B20900DA49F800D911D11240895E894DF93E6
S1130B30CF93FC01DB010E94DF057F936F93E901F2
S1130B409A01AC01BF93AF933F932F93DF010E94AF
S1130B50DF0526F46C1B7D0B820B930B9E01EB01CE
S1130B60FC010E94EE05AF91BF912F913F910E942D
S1130B70EE05BE01CF01F9012F913F91CF91DF9195
S1130B80089597FB10F8169400080F93083098F016
S1130B900850232F342F452F562F672F782F892F56
S1130BA0902DF4CF059497958795779567955795EC
S1130BB04795379527950A95AAF70F910895A29F0F
S1130BC0B001B39FC001A39F700D811D1124911D1D
S1130BD0B29F700D811D1124911D08950E94DF059F
S1130BE0460F571FC81FD91F08F431960895DC011A
S1110BF028ED209334006C930895F894FFCF01
S9030000FC
